:020000040800F2
:1000000000000220F9130008DD060008DF060008E2
:10001000E1060008E3060008E5060008000000000D
:10002000000000000000000000000000E7060008DB
:10003000E906000800000000EB060008ED060008D5
:10004000491400084914000849140008491400081C
:100050004914000849140008F5060008491400086E
:100060004914000849140008FF0600084914000854
:1000700049140008491400084914000849140008EC
:1000800049140008491400084914000849140008DC
:1000900049140008491400084914000849140008CC
:1000A00049140008491400084914000849140008BC
:1000B00049140008491400084914000849140008AC
:1000C000491400084914000849140008491400089C
:1000D000491400084914000849140008491400088C
:1000E000491400084914000849140008491400087C
:1000F000491400084914000849140008491400086C
:10010000491400084914000849140008491400085B
:10011000491400084914000849140008491400084B
:10012000491400084914000849140008491400083B
:10013000491400084914000849140008491400082B
:10014000491400084914000849140008491400081B
:10015000491400084914000849140008491400080B
:1001600049140008491400084914000849140008FB
:100170004914000849140008491400080000000050
:080180004914000849140008AD
:1001900001F0FF01102A2BDB10F0070F08D010F838
:1001A000013B013A8B422DD010F0070F42B3F6D13C
:1001B000F0B441EA012141EA014122F007047FF055
:1001C00000070023F0E80256083C85EA010586EAAC
:1001D000010685FA47F5A3FA87F586FA47F6A5FAE8
:1001E00087F68EB9EED1F0BC01F0FF0102F00702F4
:1001F00032B110F8013B013A83EA010313B1F8D19F
:100200000020704701387047002D06BF354603387F
:10021000073815F0010F07D1013015F4807F02BFB8
:10022000013015F4C03F0130F0BC0138704700BF09
:1002300053B94AB9002908BF00281CBF4FF0FF314D
:100240004FF0FF3000F00CB8ADF1080C6DE904CEB2
:1002500002F08CF8DDF804E0DDE9022304B0704719
:10026000704700BF0348044B834202D0034B03B1E5
:100270001847704778000020780000200000000038
:100280000548064B1B1AD90F01EBA301491002D0F8
:10029000034B03B118477047780000207800002016
:1002A0000000000010B5064C237843B9FFF7DAFFD1
:1002B000044B13B10448AFF300800123237010BD39
:1002C00078000020000000008C26000808B5054BCF
:1002D0001BB105490548AFF30080BDE80840FFF7B2
:1002E000CFBF00BF000000007C0000208C2600086B
:1002F0002DE9F0418AB005AD0024059406940794D9
:10030000089409940094344B1A6B42F010021A635B
:100310001A6B02F010020092009A01941A6B42F0DC
:1003200004021A631A6B02F004020192019A029409
:100330001A6B42F020021A631A6B02F0200202923A
:10034000029A03941A6B42F080021A631A6B02F04D
:1003500080020392039A04941A6B42F001021A631A
:100360001B6B03F001030493049BDFF878802246A3
:100370004FF4C061404600F0FFFE102305934FF498
:100380008817069707942946144800F0F1FD4FF4AA
:10039000C0630593012606960794089429464046B3
:1003A00000F0E6FD05960697079429460C4800F0F4
:1003B000DFFD22462146062000F04AFF062000F01D
:1003C00057FF224631460A2000F042FF0A2000F083
:1003D0004FFF0AB0BDE8F081003802400010024033
:1003E000000002400014024008B5044B1A78044B88
:1003F00053F82210034801F0EDF808BDAC000020CE
:1004000000000020A426000808B5032800D9002019
:10041000034B187000225A601A72FFF7E5FF08BDFF
:10042000AC00002008B50F4B9B785BB10D4B002250
:100430009A705A781A700C4B53F822100B4801F03E
:10044000C9F808BD074B1A785A7001219970032129
:10045000197000215960044B53F82210044801F030
:10046000B9F8EEE7AC00002000000020B826000834
:10047000E026000810B500F05FFF364B1B78364AC7
:1004800052F82320821A022B46D01BD8002B36D0DC
:10049000012B40D1B2F5FA7F3DD32F4A42F8230019
:1004A0002C4B1A7AB2FA82F252091A724FF4007186
:1004B0002A4800F061FE00224FF48061274800F0D6
:1004C0005BFE28E0032B26D1F92A24D9224A42F8E0
:1004D0002300204B1A7AB2FA82F252091C461A7291
:1004E0004FF400711D4800F047FE227A003A18BF11
:1004F00001224FF48061194800F03EFE0BE01A46DD
:100500004FF40071154800F037FE00224FF480616F
:10051000124800F031FE10BDB2F5FA7FFBD30E4A4F
:1005200042F823000B4A137AB3FA83F35B091446AB
:10053000137200224FF40071084800F01DFE227A69
:10054000003A18BF01224FF48061044800F014FE05
:10055000E1E700BFAC0000209C0000200014024036
:1005600008B5102802D0012814D008BD0F4B9B7885
:10057000002BFAD100F0E0FE0D4B1B68C31AC72B0D
:10058000F3D90B4B1860094B18780130C0B2FFF754
:100590003BFFEAE700F0D0FE064B1B68C31AC72BEF
:1005A000E3D9044B1860FFF73DFFDEE7AC00002005
:1005B000980000209400002072B6FEE708B50A48B3
:1005C0000A4B03604FF4E133436000238360C36050
:1005D00003610C2242618361C36100F071F900B9CB
:1005E00008BDFFF7E9FF00BFB80000200010014080
:1005F00010B594B008AC30220021204601F030F94B
:100600000023039304930593069307930193204AD1
:10061000116C41F080511164126C02F08052019211
:10062000019A02931B4B1A6842F480421A601B68BD
:1006300003F480430293029B012308934FF4803319
:10064000099302230E934FF480020F921922109205
:100650004FF4A8721192129304231393204600F0D2
:100660005FF988B90F2303930223049305904FF495
:10067000A05306934FF480530793052103A800F07D
:10068000A1FB18B914B010BDFFF796FFFFF794FF58
:10069000003802400070004008B500F027FEFFF768
:1006A000A7FFFFF725FEFFF789FF094B00221A700D
:1006B0005A709A705A601A72064800F0F3FF0648A2
:1006C00000F0F0FFFFF790FEFFF7D4FEFCE700BF5D
:1006D000AC0000201427000838270008FEE7FEE7DA
:1006E000FEE7FEE7FEE770477047704708B500F089
:1006F00017FE08BD08B5012000F044FD08BD08B58F
:10070000102000F03FFD08BD82B0002100910B4B8E
:100710005A6C42F480425A645A6C02F4804200924D
:10072000009A01911A6C42F080521A641B6C03F01B
:1007300080530193019B02B0704700BF0038024014
:1007400000B589B0002303930493059306930793A0
:10075000026803F1804303F588339A4201D009B05F
:1007600000BD0021019103F594335A6C42F0100250
:100770005A645A6C02F010020192019A02911A6BAB
:1007800042F001021A631B6B03F001030293029B08
:100790004FF4C063039302230493032306930723B8
:1007A000079303A9014800F0E3FBD8E700000240EB
:1007B00010B504460268136923F44053C1680B4323
:1007C0001361836802691A4343691A43C3691A4370
:1007D0000168CB6823F4164323F00C031343CB606A
:1007E0000268536923F4407381690B4353610368C2
:1007F000314A934206D002F58062934202D000F063
:1008000097FB01E000F0A4FBE369B3F5004F29D0AA
:100810000021031849411B1841F10001C90041EAB8
:100820005371DB00181863684FEA83024FEA937331
:1008300041F10001FFF7FCFC204AA2FB003149090D
:10084000642303FB11031B013233A2FB03235B0967
:1008500003F0F00202EB011203F00F0321681344CE
:100860008B6010BD0023021843EB0301121841F105
:100870000001C90041EA5271D200101841F1000193
:10088000626892185B41FFF7D3FC0C4AA2FB00316F
:100890004909642303FB1103DB003233A2FB03236A
:1008A0005B095A0002F4F87202EB011203F007032D
:1008B000216813448B60D4E7001001401F85EB5181
:1008C00060B310B5044690F8413013B3242384F884
:1008D00041302268D36823F40053D3602046FFF7E9
:1008E00067FF2268136923F49043136122685369F8
:1008F00023F02A0353612268D36843F40053D36082
:1009000000206064202384F8413084F84230606322
:1009100010BD80F84030FFF713FFD7E70120704784
:10092000002800F0E28170B582B00446036813F03D
:10093000010F3BD09B4B9B6803F00C03042B2CD086
:10094000984B9B6803F00C03082B21D06368B3F528
:10095000803F4FD0B3F5A02F52D0924B1A6822F4AB
:1009600080321A601A6822F480221A606368002BB1
:1009700050D000F0E1FC05468A4B1B6813F4003FA1
:1009800014D100F0D9FC401B6428F5D90320B3E151
:10099000844B5B6813F4800FD8D0824B1B6813F430
:1009A000003F03D06368002B00F0A181236813F09F
:1009B000020F54D07B4B9B6813F00C0F3ED0794B49
:1009C0009B6803F00C03082B33D0E368002B68D03E
:1009D000754B01221A6000F0AFFC0546714B1B6895
:1009E00013F0020F54D100F0A7FC401B0228F5D9E8
:1009F000032081E16B4A136843F480331360B5E749
:100A0000684B1A6842F480221A601A6842F48032F5
:100A10001A60ABE700F090FC0546624B1B6813F4CC
:100A2000003FC3D000F088FC401B6428F5D90320A8
:100A300062E15C4B5B6813F4800FC6D1594B1B68B5
:100A400013F0020F03D0E368012B40F05281554AA6
:100A5000136823F0F803216943EAC1031360236894
:100A600013F0080F42D063696BB34F4B0122C3F8F8
:100A7000802E00F061FC05464A4B5B6F13F0020FBD
:100A800034D100F059FC401B0228F5D9032033E192
:100A9000444A136823F0F803216943EAC103136051
:100AA000DDE7414B00221A6000F046FC05463D4B55
:100AB0001B6813F0020FD2D000F03EFC401B02284E
:100AC000F5D9032018E1384B0022C3F8802E00F03E
:100AD00033FC0546334B5B6F13F0020F06D000F07A
:100AE0002BFC401B0228F5D9032005E1236813F0F5
:100AF000040F79D02B4B1B6C13F0805F34D1002393
:100B00000193284B1A6C42F080521A641B6C03F05C
:100B100080530193019B01231E46244B1B6813F451
:100B2000807F24D0A368012B35D0052B40D01D4BEE
:100B30001A6F22F001021A671A6F22F004021A6774
:100B4000A368002B3ED000F0F7FB0546154B1B6F4A
:100B500013F0020F47D100F0EFFB401B41F2883346
:100B60009842F3D90320C7E000231E46D5E70F4A79
:100B7000136843F48073136000F0DEFB05460B4BF3
:100B80001B6813F4807FCDD100F0D6FB401B0228F8
:100B9000F5D90320B0E0034A136F43F00103136754
:100BA000CEE700BF0038024000004742007000401E
:100BB000584B1A6F42F004021A671A6F42F0010292
:100BC0001A67BDE700F0B8FB0546524B1B6F13F0E8
:100BD000020F08D000F0B0FB401B41F2883398426E
:100BE000F3D9032088E0EEB9A369002B00F08380DD
:100BF000484A926802F00C02082A51D0022B17D002
:100C0000454B00221A6600F097FB0446414B1B68D7
:100C100013F0007F42D000F08FFB001B0228F5D9B3
:100C2000032069E03B4A136C23F080531364DBE735
:100C3000394B00221A6600F07FFB0546354B1B68D6
:100C400013F0007F06D000F077FB401B0228F5D997
:100C5000032051E0E369226A1343626A43EA821384
:100C6000A26A5208013A43EA0243E26A43EA026393
:100C7000284A5360284B01221A6600F05DFB0446A7
:100C8000244B1B6813F0007F06D100F055FB001BBE
:100C90000228F5D903202FE000202DE000202BE0D2
:100CA000012B2BD01B4B5B6803F48001E26991425E
:100CB00026D103F03F02216A8A4223D1616A47F6B6
:100CC000C0721A40B2EB811F1ED103F44031A26AF8
:100CD0005208013AB1EB024F18D103F07063E26A97
:100CE000B3EB026F14D1002006E001207047012011
:100CF00002E0012000E0184602B070BD0120FBE7D1
:100D00000120F9E70120F7E70120F5E70120F3E7EB
:100D10000120F1E7003802400000474208B5264BA9
:100D20009B6803F00C03042B41D0082B41D1224BCC
:100D30005A6802F03F025B6813F4800F12D01E4B1A
:100D40005968C1F388111D480023A1FB0001FFF77A
:100D50006FFA194B5B68C3F3014301335B00B0FBCF
:100D6000F3F008BD144B5868C0F388104FEA401CDC
:100D7000BCEB000C6EEB0E0E4FEA8E1343EA9C6345
:100D80004FEA8C11B1EB0C0163EB0E03DB0043EA7D
:100D90005173C90011EB000C43F1000399020023C9
:100DA0004FEA8C2041EA9C51FFF742FAD1E7034811
:100DB000D7E70348D5E700BF0038024040787D01FF
:100DC0000024F400002800F09B8070B50D46044616
:100DD0004F4B1B6803F007038B4208D2CBB24C4A3F
:100DE0001370136803F007038B4240F08B80236875
:100DF00013F0020F17D013F0040F04D0454A936884
:100E000043F4E0539360236813F0080F04D0414A81
:100E1000936843F4604393603E4A936823F0F00381
:100E2000A1680B439360236813F0010F32D063680D
:100E3000012B21D09A1E012A25D9364A126812F0B8
:100E4000020F61D033498A6822F0030213438B609A
:100E500000F072FA06462F4B9B6803F00C036268A1
:100E6000B3EB820F16D000F067FA801B41F2883393
:100E70009842F0D9032042E0264A126812F4003F5B
:100E8000E0D101203BE0234A126812F0007FD9D163
:100E9000012034E01E4B1B6803F00703AB4207D967
:100EA000EAB21B4B1A701B6803F00703AB422DD14B
:100EB000236813F0040F06D0164A936823F4E05316
:100EC000E1680B439360236813F0080F07D0114AC1
:100ED000936823F46043216943EAC1039360FFF7F9
:100EE0001DFF0C4B9B68C3F303130B4AD35CD84024
:100EF0000A4B18600A4B186800F0D2F9002070BD48
:100F0000012070470120FAE70120F8E70120F6E709
:100F1000003C0240003802408C27000818000020E6
:100F200014000020014B1868704700BF1800002013
:100F300008B5FFF7F7FF044B9B68C3F38223034A0E
:100F4000D35CD84008BD00BF0038024084270008A9
:100F500008B5FFF7E7FF044B9B68C3F34233034A2E
:100F6000D35CD84008BD00BF003802408427000889
:100F700070B582B08E46002369E085684FEA430C65
:100F8000032101FA0CF125EA0105DEF80C1001FA43
:100F90000CF129438160416821EA0201DEF8042056
:100FA000C2F300129A400A43426065E0D908083152
:100FB00050F8212003F00705AD004FF00F0C0CFA9C
:100FC00005FC22EA0C0CDEF81020AA4042EA0C02D2
:100FD00040F8212067E0072200E0002202FA0CF22C
:100FE0002A430231604D45F82120604A9168E2436E
:100FF00021EA0405DEF8046016F4801F01D044EAFB
:1010000001055A498D60C96802EA0105DEF80460ED
:1010100016F4001F01D044EA01055449CD60496827
:1010200002EA0105DEF8046016F4003F01D044EA4C
:1010300001054E494D6009680A40DEF8045015F478
:10104000803F01D044EA010248490A6001330F2B76
:1010500000F2878001229A40DEF8001001EA0204C3
:1010600032EA0101F2D1DEF8041001F0030C0CF1B8
:10107000FF3CBCF1010F80D9DEF8042002F003022E
:10108000032A0AD0C1685D000322AA4021EA0201B6
:10109000DEF80820AA400A43C260DEF8042002F00D
:1010A0000302022A82D001684FEA430C032202FAAB
:1010B0000CF221EA0201DEF8042002F0030202FA37
:1010C0000CF20A430260DEF8042012F4403FBDD067
:1010D00000220192264A516C41F480415164526CC5
:1010E00002F480420192019A99088D1C1E4A52F81E
:1010F000255003F0030C4FEA8C0C0F2202FA0CF27D
:1011000025EA02051B4A90423FF467AF02F5806270
:1011100090421AD002F58062904218D002F58062A7
:10112000904216D002F58062904214D002F580629F
:10113000904212D002F58062904210D002F5806297
:1011400090423FF448AF082248E7012246E70222D6
:1011500044E7032242E7042240E705223EE7062255
:101160003CE702B070BD00BF00380140003C0140C8
:1011700000380240000002400AB181617047090452
:101180008161704708B5054B5B69034200D108BD1A
:10119000024B5861FFF7E4F9F9E700BF003C01405A
:1011A000002807DB00F01F02400901239340024A98
:1011B00042F82030704700BF00E100E0002808DB63
:1011C0000901C9B200F1604000F5614080F80013E8
:1011D000704700F00F000901C9B2014B1954704764
:1011E00014ED00E000B500F00700A0F1030CBCF125
:1011F000040F07D8C0F1070E0430062806D84FF0B8
:10120000000C03E04FF0040E4FF0000C4FF0FF33E2
:1012100003FA0EF021EA000101FA0CF103FA0CF3D3
:1012200022EA030241EA020000BD0000074AD36837
:1012300023F4E0631B041B0C000200F4E060034392
:1012400043F0BF6343F40033D360704700ED00E028
:1012500010B50446054BD868C0F30220FFF7C2FF63
:1012600001462046FFF7AAFF10BD00BF00ED00E0D9
:1012700008B5FFF795FF08BD0138B0F1807F0BD2AC
:101280004FF0E0235861054AF02182F82310002036
:10129000986107221A6170470120704700ED00E055
:1012A00010B504460E4B18680E4B1A784FF47A733B
:1012B000B3FBF2F3B0FBF3F0FFF7DEFF68B90F2CDE
:1012C00001D901200AE0024621464FF0FF30FFF726
:1012D000BFFF054B1C60002000E0012010BD00BFD7
:1012E00018000020100000201400002008B50B4B4F
:1012F0001A6842F400721A601A6842F480621A6036
:101300001A6842F480721A600320FFF78FFF0F20E3
:10131000FFF7C6FFFFF7F8F9002008BD003C0240C8
:10132000034A1168034B1B780B441360704700BFDE
:101330000001002010000020014B1868704700BF1A
:1013400000010020034AD2F8883043F47003C2F849
:101350008830704700ED00E008B503460D4A0E499D
:101360000E48006840B10D4800680344521A934289
:1013700008D80A4A136008BD0848DFF824C0C0F83E
:1013800000C0F0E700F0BAFA0C2303604FF0FF3022
:10139000F1E700BF0000022000040000040100206B
:1013A0005802002070B50E461546002406E0AFF343
:1013B0000080314601F8010B01340E46AC42F6DBE9
:1013C000284670BD70B50C461646002504E014F89A
:1013D000010BAFF300800135B542F8DB304670BD3C
:1013E0004FF0FF3070474FF400534B6000207047C0
:1013F0000120704700207047DFF834D0FFF7A2FFCC
:101400000C480D490D4A002302E0D458C45004335F
:10141000C4188C42F9D30A4A0A4C002301E0136035
:101420000432A242FBD300F06FFAFFF735F97047A0
:10143000000002200000002078000020E0270008C3
:101440007800002054020020FEE70000002310B5C1
:101450000446C0E90033C0E90433836081814366F8
:10146000C2818361194608225C3000F0F9F90D4B06
:1014700063620D4BA3620D4BE3620D4B23630D4B77
:1014800024629C4206D003F16802944202D0D03319
:101490009C4205D104F15800BDE8104000F058BA54
:1014A00010BD00BFB5160008D71600080F170008BA
:1014B0003517000808010020024A0349034800F0DC
:1014C0006BB800BF1C000020FD2100082C0000208C
:1014D00041680C4B994210B5044601D000F08EFED5
:1014E000A168094B994202D0204600F087FEE168CE
:1014F000064B994204D02046BDE8104000F07EBE65
:1015000010BD00BF0801002070010020D80100209C
:1015100010B50A4B0A4A1A600A4800220421FFF754
:1015200095FF094801220921FFF790FFBDE810400F
:10153000064802221221FFF789BF00BF40020020A7
:10154000B91400080801002070010020D801002013
:10155000014800F0FEB900BF49020020014800F038
:10156000F9B900BF4902002010B50446FFF7F0FFAB
:10157000236A1BB1BDE81040FFF7F0BF044B2362A4
:10158000044B1B68002BF5D1FFF7C2FFF2E700BF49
:10159000D1140008400200202DE9F8438046894616
:1015A00014460026D4E90175013F05D52468002CB6
:1015B000F8D13046BDE8F883AB89012B07D9B5F9DE
:1015C0000E30013303D029464046C84706436835EC
:1015D000EAE700000FB407B5064904AB086853F802
:1015E000042B8168019300F0D5FA03B05DF804EB99
:1015F00004B0704728000020036A70B5846805466F
:101600000E460BB9FFF7B0FF636EDB0705D4A38965
:10161000980502D4A06D00F09CF9A389190702D5A2
:101620002369002B35D12146284600F0C5F880B348
:101630004FF0FF35636EDA0705D4A3899B0502D40A
:10164000A06D00F087F9284670BD002B04DAA2696E
:10165000934217DB0A2915D023685A1C226019709F
:10166000A36816F8011F013BA3600029EDD18B424E
:1016700011DA22460A21284600F060F80130D7D05E
:101680000A25D7E72246284600F058F80130E7D16E
:10169000CEE7013EE4E723685A1C22600A221A7052
:1016A000EEE70000024B01461868FFF7A5BF00BF38
:1016B0002800002010B50C46B1F90E1000F0FAF821
:1016C0000028ABBF636DA3891B1823F48053ACBF04
:1016D0006365A38110BD2DE9F0411F468B89DB05B1
:1016E00005460C46164605D5B1F90E100223002218
:1016F00000F0CEF8A389B4F90E1023F48053A3812F
:1017000032463B462846BDE8F04100F0E5B810B54A
:101710000C46B1F90E1000F0BBF8B4F90C30421CC5
:101720000BBF23F4805343F48053A381A38118BFDC
:10173000606510BDB1F90E1000F09AB8F8B5054615
:101740000F46144618B1036A0BB9FFF70DFFA369E2
:10175000A360A3891A0701D5236943B92146284606
:1017600000F02AF818B14FF0FF363046F8BD236973
:101770002068C01A6369834205DC2146284600F0D0
:101780003DFD0028EFD1A368013BA36023685A1CEC
:1017900022601F70636901308342FEB204D0A389C6
:1017A000DB07E2D50A2EE0D12146284600F026FDCF
:1017B0000028DAD0D7E7000038B5284B054618686E
:1017C0000C4618B1036A0BB9FFF7CEFEB4F90C3022
:1017D000190720D4DA0607D409222A6043F040030F
:1017E000A3814FF0FF3031E0580711D5616B41B153
:1017F00004F14403994202D0284600F0ADF80023DA
:1018000063630022A38962602269226023F02403BB
:1018100043F00803A38123694BB9A38903F4207320
:10182000B3F5007F03D02146284600F033FDB4F91C
:101830000C3013F001020AD00022A2606269524209
:10184000A261226942B913F08000C7D138BD99075F
:1018500058BF6269A260F4E70020F7E72800002083
:1018600002440346934200D1704703F8011BF9E795
:1018700038B5064C0023054608462360FFF7B0FD47
:10188000431C02D1236803B12B6038BD4402002001
:1018900038B5074C054608461146002222601A4614
:1018A000FFF7A8FD431C02D1236803B12B6038BDAC
:1018B0004402002038B5074C054608461146002270
:1018C00022601A46FFF76EFD431C02D1236803B164
:1018D0002B6038BD4402002038B5074C0546084649
:1018E0001146002222601A46FFF76CFD431C02D10C
:1018F000236803B12B6038BD44020020014B1868F7
:10190000704700BF2800002070B50D4B0D4C00261D
:101910001D1BB6EBA50F09D100F0B8FE0A4C0B4B0E
:1019200000261D1BB6EBA50F05D170BD54F8043B76
:1019300098470136EDE754F8043B98470136F1E744
:10194000D8270008D8270008D8270008DC27000877
:10195000704770477047000037B5002944D051F8F0
:10196000043C0190002BA1F10404B8BFE41800F07E
:10197000DDF81E4A0198136833B96360146003B040
:10198000BDE8304000F0D8B8A34208D925686119F5
:101990008B4201BF19685B6849192160EDE71A465F
:1019A0005B680BB1A342FAD911685518A5420BD157
:1019B000246821445418A3421160E0D11C685B687C
:1019C00053600C441460DAE702D90C230360D6E7B5
:1019D000256861198B4204BF19685B68636004BFA6
:1019E000491921605460CAE703B030BD500200209D
:1019F00070B50F4C0E462168054611B900F0A6FCE3
:101A000020603146284600F0A1FC431C03D14FF072
:101A1000FF34204670BDC41C24F00304A042F8D05B
:101A2000211A284600F092FC0130F2D1EFE700BF06
:101A30004C0200202DE9F843CD1C25F003050835A4
:101A40000C2D38BF0C25002D064601DBA94204D918
:101A50000C2333600020BDE8F883334F00F066F8B4
:101A60003B681C463CBB29463046FFF7C1FF431C80
:101A7000044656D13C68A046B8F1000F40D1002C76
:101A800049D023684146304604EB030900F05EFC70
:101A9000814540D121686D1A29463046FFF7A8FFDD
:101AA000013038D023682B4423603B685A685ABB06
:101AB000C7F800800EE02268521B1ED40B2A16D9EC
:101AC0006119A342256018BF5960636808BF396077
:101AD00062514B60304600F02FF804F10B00231DDB
:101AE00020F00700C21A1CBF1B1AA350B3E762689C
:101AF000A3420CBF3A605A60ECE723466468B1E742
:101B00004446D8F80480B7E71A465B68A342FBD185
:101B100000235360DEE70C233360304600F00CF8FE
:101B200098E70560D6E700BF500200200148FFF7A4
:101B300010BF00BF480200200148FFF70BBF00BFE5
:101B4000480200209368013B002B10B4936007DA31
:101B50009469A34201DB0A2902D110BCFFF7EEBD54
:101B60001368581C10601970084610BC7047F8B50F
:101B700006460F461446D518AC4201D1002007E0B6
:101B800014F8011B3A463046FFF7DCFF431CF3D143
:101B9000F8BD00002DE9F04706469CB00D461446FE
:101BA0001F4618B1036A0BB9FFF7DEFC6B6ED9074D
:101BB00005D4AB899A0502D4A86DFFF7CAFEAB899C
:101BC0001B0701D52B699BB929463046FFF7F4FD69
:101BD00070B16B6EDE0704D54FF0FF301CB0BDE86E
:101BE000F087AB899C05F7D4A86DFFF7B3FEF3E748
:101BF0000023099320238DF82930039730236A4F5F
:101C00008DF82A304FF0010823461A7899461AB108
:101C1000252A03F10103F8D1B9EB040A0BD053468E
:101C2000224629463046FFF7A2FF013000F0A3808C
:101C3000099A5244099299F80030002B00F09B80D9
:101C400000224FF0FF33CDE9053209F1010904927A
:101C500007928DF853201A924C46052214F8011B66
:101C60005148FEF795FA049AD0B9D00644BF202314
:101C70008DF85330110744BF2B238DF8533099F85A
:101C800000302A2B13D007994B4600204FF00A0C46
:101C90001A78303A092A1C464AD9A8B1079113E0AC
:101CA000C01B08FA00F010430490A146D4E7039B40
:101CB000191D1B680391002BBBBF5B4242F002025F
:101CC00007930793B8BF049223782E2B0AD1637829
:101CD0002A2B32D1039B1A1D1B68039243EAE3733C
:101CE00002340593DFF8D090217803224846FEF7AE
:101CF0004FFA38B1049BA0EB090040228240134305
:101D000001340493217829488DF828100622FEF723
:101D10003FFA00283ED0264818BB039B073323F028
:101D2000070308330393099B0344013409936BE7CA
:101D300001330CFB01210120AAE700230593611C5C
:101D400018464FF00A0C0A78303A092A0C4603D993
:101D5000002BC7D00590C5E701310CFB0020012303
:101D6000F1E703AB00932A46124B04A93046AFF3C8
:101D70000080431CD7D16B6ED90705D4AB899A0577
:101D800002D4A86DFFF7E6FDAB895B063FF524AFF3
:101D9000099823E703AB00932A46064B04A9304673
:101DA00000F082F8E5E700BF9C270008A62700089E
:101DB000000000006F1B0008A22700082DE9F04773
:101DC000914698468A680B69089E9342B8BF1346AD
:101DD000C9F8003091F8432007460C4612B1013390
:101DE000C9F800302368990642BFD9F800300233A1
:101DF000C9F80030256815F0060507D104F1190A65
:101E0000E368D9F800209B1AAB4229DC94F84330F0
:101E10002268003B18BF012392062ED404F143022E
:101E200041463846B047013021D02368A168226975
:101E300003F00603042B01BFE568D9F80030ED1A62
:101E400025EAE57518BF00258B1A2B449142C8BFBF
:101E50001D464FF000091A344D451AD1002008E004
:101E60000123524641463846B047013003D14FF076
:101E7000FF30BDE8F0870135C2E7E1185A1C302079
:101E800081F84300224494F8451082F8431002334D
:101E9000C4E70123224641463846B0470130E6D028
:101EA00009F10109D8E700002DE9F04398460B7EBF
:101EB00085B0782B174606460C9A0C4609D8622B3B
:101EC00001F1430108D8002B00F0DC80582B00F012
:101ED000BD8004F1420539E0A3F163001528F8D86C
:101EE00001A555F820F000BF411F0008551F00084C
:101EF000D31E0008D31E0008D31E0008D31E0008FE
:101F0000551F0008D31E0008D31E0008D31E00086A
:101F1000D31E000865200008811F00081320000858
:101F2000D31E0008D31E00088D200008D31E000811
:101F3000811F0008D31E0008D31E00081B200008C4
:101F40001368191D1B68116004F1420584F84230C2
:101F50000123A8E013682568181D1060280601D524
:101F60001B6803E06A06FBD5B3F90030002B03DAE7
:101F70002D225B4284F84320DFF878C10A2213E067
:101F80002568106815F0800F50F8043B02D16D06EB
:101F900048BF9BB21060227EDFF858C16F2A5DD126
:101FA0000822002084F843006568A560002D05DB49
:101FB00020681D4320F00400206051D00D46B3FB83
:101FC000F2F002FB103E9A421CF80EE005F801ED1B
:101FD0000346F4D9082A0BD12368DA0708D5236908
:101FE00062689A42DEBF302305F8013C05F1FF35F7
:101FF000491B2161CDF800803B4603AA21463046AB
:10200000FFF7DCFE013053D14FF0FF3005B0BDE8E3
:10201000F083236843F020032360DFF8DCC07823DB
:1020200084F845302068156810F0800F55F8043B9F
:1020300003D110F0400F18BF9BB21560C50744BF15
:1020400040F02000206023B11022AAE7DFF8A4C0EE
:10205000E6E7226822F020022260F5E70A22A0E7E4
:102060000D46B7E71368D4F800C060691D1D156000
:102070001CF0800F1B6801D0186003E01CF0400FBB
:10208000FAD01880002323610D46B3E71368191DA9
:1020900011601D68626800212846FEF779F808B1D2
:1020A000401B606063682361002384F84330A1E72C
:1020B00023692A4639463046C0470130A4D02368F8
:1020C0009B0714D4E068039B9842B8BF18469DE76D
:1020D000012304F1190239463046C047013093D03C
:1020E0000135E36803995B1AAB42F1DCEAE70025AE
:1020F000F7E700BFAD270008BE270008B1F90C20A4
:102100002DE9F041160705460C4651D44B68002BCB
:1021100002DC0B6C002B49DDE66A002E46D0002362
:1021200012F480522F682B6031D0626DA389590759
:1021300005D56368D21A636B0BB1236CD21A0023E6
:10214000E66A216A2846B047421CB4F90C3006D131
:1021500029681D2945D8284ACA40D60741D50022FA
:102160006260D9042269226004D5421C01D12B6827
:1021700003B96065616B2F60C1B104F144039942FA
:1021800002D02846FFF7E8FB002363630EE0216AD4
:1021900001232846B0470246501CC7D12B68002BAC
:1021A000C4D01D2B01D0162B1AD12F6000201DE0AA
:1021B0000F69002FFAD093070E6808BF4B690F60B4
:1021C00018BF0023A6EB07088B60B8F1000FEDDD08
:1021D000216AA66A43463A462846B047002807DCEB
:1021E000A38943F04003A3814FF0FF30BDE8F081A5
:1021F0000744A8EB0008E8E70100402038B50B6968
:1022000005460C4613B91D46284638BD18B1036A69
:102210000BB9FFF7A9F9B4F90C30002BF3D0626EBB
:10222000D00704D4990502D4A06DFFF792FB28468D
:102230002146FFF763FF636EDA070546E4D4A389FE
:102240009B05E1D4A06DFFF785FBDDE770B50E4679
:10225000B1F90E10002996B014461D460ADAB2896B
:1022600012F0800213D14FF4806100202A602160B7
:1022700016B070BD6A4600F047F80028EFDB019AFF
:1022800002F47042A2F500535A425A41EBE7002291
:102290004021EAE78B8973B59E0705460C4607D5B2
:1022A00004F14703236023610123636102B070BD21
:1022B00001AB6A46FFF7CAFF009E28463146FFF78A
:1022C000B9FBB4F90C3038B99A05EFD423F0030305
:1022D00043F00203A381E3E743F08003A381019B62
:1022E0002060C4E90406002BE0D0B4F90E102846A3
:1022F00000F01CF80028D9D0A38923F0030343F091
:102300000103A381D2E7000038B5074C002305463E
:10231000084611462360FFF766F8431C02D1236884
:1023200003B12B6038BD00BF4402002038B5064C15
:102330000023054608462360FFF75AF8431C02D1E4
:10234000236803B12B6038BD4402002038B5064C29
:102350000023054608462360FEF7FEFF431C02D11A
:10236000236803B12B6038BD440200202DE9F047FB
:1023700082B00646DDF828E00846B4460D46002B3C
:102380004ED18A4214466DD9B2FA82F242B1C2F1FC
:102390002003954026FA03F394401D4306FA02FCFD
:1023A000260CA7B2B5FBF6F14FEA1C4306FB11550C
:1023B00043EA054301FB07F0984209D9E31801F10C
:1023C000FF3580F00381984240F2008102392344B6
:1023D0001B1A1FFA8CFCB3FBF6F006FB10334CEA19
:1023E000034C00FB07F363450AD914EB0C0C00F116
:1023F000FF3580F0ED80634540F2EA80A444023866
:1024000040EA0140ACEB030C0021BEF1000F04D008
:102410002CFA02F30022CEE9003202B0BDE8F087C8
:102420008B4209D9BEF1000F01D0CEE90061002135
:10243000084602B0BDE8F087B3FA83F117460029D9
:102440004DD1834202D3B24200F20F81B6EB070CAA
:1024500060EB030301201D46BEF1000FDDD0CEE985
:1024600000C5DAE7002A00F098801A46B4FA84F32F
:10247000002B40F0AF800B1B270CA6B20121B3FB51
:10248000F7F54FEA1C4007FB153340EA034306FB10
:1024900005F8984507D9E31805F1FF3002D29845B1
:1024A00000F2E8800546A3EB08031FFA8CFCB3FB9F
:1024B000F7F007FB10334CEA034C06FB00F36345CF
:1024C00008D914EB0C0C00F1FF3602D2634500F280
:1024D000CE803046ACEB030C40EA054095E7C1F1F5
:1024E00020058B4022FA05FC4CEA030C00FA01F4AB
:1024F00026FA05F3E84002FA01F943EA04084FEA34
:102500001C4206FA01FAB0FBF2F71FFA8CF602FB46
:1025100017004FEA184444EA004407FB06F0A042C3
:102520000AD91CEB040407F1FF3380F09C80A04221
:1025300040F29980023F6444241A1FFA88F3B4FBE6
:10254000F2F002FB104443EA044300FB06F69E420D
:1025500009D91CEB030300F1FF3480F082809E4216
:102560007FD90238634440EA0740A0FB09749B1BF3
:10257000A3423E46A04664D361D0BEF1000F0AD00C
:10258000BAEB060263EB080303FA05F5CA401543EC
:10259000CB40CEE9005300213FE7730843EAC17303
:1025A0004A08190C41EA02414FEAC67C9BB2B2FBD1
:1025B000F4F02646A04627461F2243EA0143B1FB1A
:1025C000F4F1A3EB080341EA004158E72946FFE68E
:1025D000284615E71A46C3F120019C4026FA01F36C
:1025E00020FA01F190400343270C06FA02FCB1FBEC
:1025F000F7F0A6B207FB1015190C41EA054100FBE4
:1026000006F58D423BD9611801D28D4220D8491B75
:102610000138B1FBF7F5019505FB06F8019D9BB26A
:1026200007FB151143EA0143434526D2E31805F1A0
:10263000FF31C6D24345C4D2A91E2344C1E7BA45DF
:102640009BD2B7EB090664EB0C040138A04694E773
:10265000651B29440238B1FBF7F5019505FB06F827
:10266000DCE720467FE71F4666E70846F4E6A44419
:1026700002382FE7023D234415E70199A1E7491BE2
:10268000B1FBF7F5019505FB06F8C7E7F8B500BF04
:10269000F8BC08BC9E467047F8B500BFF8BC08BC43
:0426A0009E4670479B
:1026A400E5BD93E5898DE6A8A1E5BC8F3A202573A5
:1026B4000D0A0000E98080E587BAE7B4A7E680A5A3
:1026C400E58F8CE997AAEFBC8CE681A2E5A48DE6A0
:1026D400A8A1E5BC8F3A2025730D0A00E8BF9BE54D
:1026E40085A5E7B4A7E680A5E58F8CE997AAE6A8B7
:1026F400A1E5BC8FEFBC8CE4BF9DE5AD98E58E9F52
:10270400E6A8A1E5BC8F3A2025730D0A000000005D
:102714000D0A3D3D3D20E699BAE883BDE781AFE56A
:102724008589E68EA7E588B6E7B3BBE7BB9F203D66
:102734003D3D0D004B4559303A20E58887E68DA292
:10274400E6A8A1E5BC8F207C204B45595F55503A43
:1027540020E7B4A7E680A5E58F8CE997AA0D0000D1
:10276400E585B3E997AD0000E5B7A6E8BDAC000088
:10277400E58FB3E8BDAC0000E58F8CE997AA0000B3
:10278400000000000102030400000000000000003B
:102794000102030406070809232D302B2000686C6E
:1027A4004C00656667454647003031323334353670
:1027B40037383941424344454600303132333435A9
:0C27C400363738396162636465660000D6
:0827D000C0D9FF7F01000000E9
:0427D800CD02000826
:0427DC00A50200084A
:1027E000642700086C270008742700087C2700086D
:1027F00001000000100000000024F40000000000B0
:1028000003000000080100202C0000200000000050
:102810000801002070010020D80100200000000005
:1028200000000000000000000000000000000000A8
:102830000000000000000000000000000000000098
:102840000000000000000000000000000000000088
:08285000000000000000000080
:04000005080013F9E3
:00000001FF
