:020000040800F2
:1000000000000220410F0008CD040008CF040008C2
:10001000D1040008D3040008D50400080000000043
:10002000000000000000000000000000D7040008ED
:10003000D904000800000000DB040008DD0400080B
:10004000910F0008910F0008910F0008910F000810
:10005000910F0008910F0008910F0008910F000800
:10006000910F0008910F0008E5040008910F0008A7
:10007000910F0008910F0008910F0008910F0008E0
:10008000910F0008910F0008910F0008910F0008D0
:10009000910F0008910F0008910F0008910F0008C0
:1000A000910F0008910F0008910F0008910F0008B0
:1000B000910F0008910F0008910F0008910F0008A0
:1000C000910F0008910F0008910F0008910F000890
:1000D000910F0008910F0008910F0008910F000880
:1000E000910F0008910F0008910F0008910F000870
:1000F000910F0008910F0008910F0008910F000860
:10010000910F0008910F0008910F0008910F00084F
:10011000910F0008910F0008910F0008910F00083F
:10012000910F0008910F0008910F0008910F00082F
:10013000910F0008910F0008910F0008910F00081F
:10014000910F0008910F0008910F0008910F00080F
:10015000910F0008910F0008910F0008910F0008FF
:10016000910F0008910F0008910F0008910F0008EF
:10017000910F0008910F0008910F00080000000087
:08018000910F0008910F000827
:1001880053B94AB9002908BF00281CBF4FF0FF31F6
:100198004FF0FF3000F00CB8ADF1080C6DE904CE5B
:1001A80000F020FFDDF804E0DDE9022304B0704729
:1001B800704700BF0348044B834202D0034B03B18E
:1001C800184770470C0000200C00002000000000B9
:1001D8000548064B1B1AD90F01EBA301491002D0A1
:1001E800034B03B1184770470C0000200C00002097
:1001F8000000000010B5064C237843B9FFF7DAFF7A
:10020800044B13B10448AFF300800123237010BDE1
:100218000C000020000000000C13000808B5054B76
:100228001BB105490548AFF30080BDE80840FFF75A
:10023800CFBF00BF00000000100000200C13000812
:100248000A4BD3F8FC3013F0807F06D1074AD2F866
:10025800FC3043F08073C2F8FC30054B00225A6032
:100268001A6842F001021A60704700BF00ED00E012
:10027800001000E008B502282CD00FD8E8B10128FA
:1002880027D100224FF40071194800F065FD0122C2
:100298004FF48061164800F05FFD1AE0032818D17A
:1002A80001224FF40071124800F056FD01224FF46C
:1002B80080610F4800F050FD0BE001224FF40071FF
:1002C8000B4800F049FD00224FF48061084800F017
:1002D80043FD08BD00224FF40071054800F03CFDC5
:1002E80000224FF48061024800F036FDF1E700BFBC
:1002F80000140240014B5868704700BF001000E02E
:1003080008B5124B1B78022B17D0DAB2022A06D88E
:100318005AB1012A15D10D4B02221A7008E0032A9E
:100328000FD10A4B00221A7002E0084B01221A7002
:10033800064B1878FFF79EFF08BD044B03221A707E
:10034800F6E7024B00221A70F2E700BF28000020EF
:1003580072B6FEE710B594B008AC302200212046F2
:1003680000F013FE00230393049305930693079369
:100378000193204A116C41F080511164126C02F013
:1003880080520192019A02931B4B1A6842F48042F0
:100398001A601B6803F480430293029B01230893AD
:1003A8004FF48033099302230E934FF480020F9287
:1003B800192210924FF4A8721192129304231393E6
:1003C800204600F0C3F888B90F230393022304934F
:1003D80005904FF4A05306934FF4805307930521DB
:1003E80003A800F005FB18B914B010BDFFF7B0FF63
:1003F800FFF7AEFF003802400070004008B500F07B
:1004080065FDFFF7A7FF00F009F8FFF719FF024B9A
:100418001878FFF72FFFFEE728000020F0B589B015
:1004280003AD00240394049405940694079400945F
:10043800214B1A6B42F020021A631A6B02F0200259
:100448000092009A01941A6B42F080021A631A6BA8
:1004580002F080020192019A02941A6B42F0100293
:100468001A631B6B03F010030293029B134F22467F
:100478004FF4C061384600F06FFC4FF4C06303933B
:1004880001260496059406942946384600F060FB38
:10049800102303934FF40413049305962946084840
:1004A80000F056FB224621460A2000F0C1FC0A2033
:1004B80000F0CEFC09B0F0BD003802400014024044
:1004C80000100240FEE7FEE7FEE7FEE7FEE77047A2
:1004D8007047704708B500F013FD08BD08B5102037
:1004E80000F040FC08BD0000102800D0704708B597
:1004F800FFF700FF054B1B68C31A054A934200D853
:1005080008BD024B1860FFF7FBFEF9E72C0000203E
:10051800802C800082B0002100910B4B5A6C42F471
:1005280080425A645A6C02F480420092009A019107
:100538001A6C42F080521A641B6C03F080530193CA
:10054800019B02B0704700BF00380240002800F04D
:10055800E28170B582B00446036813F0010F3BD006
:100568009B4B9B6803F00C03042B2CD0984B9B6887
:1005780003F00C03082B21D06368B3F5803F4FD0FC
:10058800B3F5A02F52D0924B1A6822F480321A6029
:100598001A6822F480221A606368002B50D000F099
:1005A800BBFC05468A4B1B6813F4003F14D100F0CE
:1005B800B3FC401B6428F5D90320B3E1844B5B6886
:1005C80013F4800FD8D0824B1B6813F4003F03D07C
:1005D8006368002B00F0A181236813F0020F54D048
:1005E8007B4B9B6813F00C0F3ED0794B9B6803F054
:1005F8000C03082B33D0E368002B68D0754B01221D
:100608001A6000F089FC0546714B1B6813F0020F55
:1006180054D100F081FC401B0228F5D9032081E168
:100628006B4A136843F480331360B5E7684B1A6864
:1006380042F480221A601A6842F480321A60ABE7EA
:1006480000F06AFC0546624B1B6813F4003FC3D0F8
:1006580000F062FC401B6428F5D9032062E15C4B82
:100668005B6813F4800FC6D1594B1B6813F0020F57
:1006780003D0E368012B40F05281554A136823F0F8
:10068800F803216943EAC1031360236813F0080FD4
:1006980042D063696BB34F4B0122C3F8802E00F040
:1006A8003BFC05464A4B5B6F13F0020F34D100F058
:1006B80033FC401B0228F5D9032033E1444A136870
:1006C80023F0F803216943EAC1031360DDE7414BD6
:1006D80000221A6000F020FC05463D4B1B6813F011
:1006E800020FD2D000F018FC401B0228F5D90320D5
:1006F80018E1384B0022C3F8802E00F00DFC0546A7
:10070800334B5B6F13F0020F06D000F005FC401B63
:100718000228F5D9032005E1236813F0040F79D0E6
:100728002B4B1B6C13F0805F34D100230193284BB3
:100738001A6C42F080521A641B6C03F080530193C8
:10074800019B01231E46244B1B6813F4807F24D091
:10075800A368012B35D0052B40D01D4B1A6F22F012
:1007680001021A671A6F22F004021A67A368002BA5
:100778003ED000F0D1FB0546154B1B6F13F0020F5E
:1007880047D100F0C9FB401B41F288339842F3D9A6
:100798000320C7E000231E46D5E70F4A136843F439
:1007A8008073136000F0B8FB05460B4B1B6813F40D
:1007B800807FCDD100F0B0FB401B0228F5D9032083
:1007C800B0E0034A136F43F001031367CEE700BF9D
:1007D800003802400000474200700040584B1A6F32
:1007E80042F004021A671A6F42F001021A67BDE765
:1007F80000F092FB0546524B1B6F13F0020F08D016
:1008080000F08AFB401B41F288339842F3D9032059
:1008180088E0EEB9A369002B00F08380484A92680B
:1008280002F00C02082A51D0022B17D0454B0022A7
:100838001A6600F071FB0446414B1B6813F0007FF9
:1008480042D000F069FB001B0228F5D9032069E0BB
:100858003B4A136C23F080531364DBE7394B0022C7
:100868001A6600F059FB0546354B1B6813F0007FEC
:1008780006D000F051FB401B0228F5D9032051E0B7
:10088800E369226A1343626A43EA8213A26A52083E
:10089800013A43EA0243E26A43EA0263284A5360A0
:1008A800284B01221A6600F037FB0446244B1B68CC
:1008B80013F0007F06D100F02FFB001B0228F5D9AA
:1008C80003202FE000202DE000202BE0012B2BD06F
:1008D8001B4B5B6803F48001E269914226D103F067
:1008E8003F02216A8A4223D1616A47F6C0721A40E0
:1008F800B2EB811F1ED103F44031A26A5208013ABB
:10090800B1EB024F18D103F07063E26AB3EB026FE8
:1009180014D1002006E001207047012002E00120E8
:1009280000E0184602B070BD0120FBE70120F9E79E
:100938000120F7E70120F5E70120F3E70120F1E7BF
:10094800003802400000474208B5264B9B6803F078
:100958000C03042B41D0082B41D1224B5A6802F0DA
:100968003F025B6813F4800F12D01E4B5968C1F325
:1009780088111D480023A1FB0001FFF701FC194B5A
:100988005B68C3F3014301335B00B0FBF3F008BDC0
:10099800144B5868C0F388104FEA401CBCEB000C9D
:1009A8006EEB0E0E4FEA8E1343EA9C634FEA8C11EE
:1009B800B1EB0C0163EB0E03DB0043EA5173C90092
:1009C80011EB000C43F10003990200234FEA8C203D
:1009D80041EA9C51FFF7D4FBD1E70348D7E7034826
:1009E800D5E700BF0038024040787D010024F400BC
:1009F800002800F09B8070B50D4604464F4B1B68DD
:100A080003F007038B4208D2CBB24C4A1370136829
:100A180003F007038B4240F08B80236813F0020F2A
:100A280017D013F0040F04D0454A936843F4E053F9
:100A38009360236813F0080F04D0414A936843F485
:100A4800604393603E4A936823F0F003A1680B4328
:100A58009360236813F0010F32D06368012B21D013
:100A68009A1E012A25D9364A126812F0020F61D05F
:100A780033498A6822F0030213438B6000F04CFA72
:100A880006462F4B9B6803F00C036268B3EB820F9A
:100A980016D000F041FA801B41F288339842F0D911
:100AA800032042E0264A126812F4003FE0D10120F8
:100AB8003BE0234A126812F0007FD9D1012034E0CC
:100AC8001E4B1B6803F00703AB4207D9EAB21B4B66
:100AD8001A701B6803F00703AB422DD1236813F08B
:100AE800040F06D0164A936823F4E053E1680B43D9
:100AF8009360236813F0080F07D0114A936823F412
:100B08006043216943EAC1039360FFF71DFF0C4B63
:100B18009B68C3F303130B4AD35CD8400A4B186095
:100B28000A4B186800F0ACF9002070BD012070472E
:100B38000120FAE70120F8E70120F6E7003C02402F
:100B48000038024024130008080000200400002098
:100B580070B582B08E46002369E085684FEA430C81
:100B6800032101FA0CF125EA0105DEF80C1001FA5F
:100B78000CF129438160416821EA0201DEF8042072
:100B8800C2F300129A400A43426065E0D90808316E
:100B980050F8212003F00705AD004FF00F0C0CFAB8
:100BA80005FC22EA0C0CDEF81020AA4042EA0C02EE
:100BB80040F8212067E0072200E0002202FA0CF248
:100BC8002A430231604D45F82120604A9168E2438A
:100BD80021EA0405DEF8046016F4801F01D044EA17
:100BE80001055A498D60C96802EA0105DEF804600A
:100BF80016F4001F01D044EA01055449CD60496844
:100C080002EA0105DEF8046016F4003F01D044EA68
:100C180001054E494D6009680A40DEF8045015F494
:100C2800803F01D044EA010248490A6001330F2B92
:100C380000F2878001229A40DEF8001001EA0204DF
:100C480032EA0101F2D1DEF8041001F0030C0CF1D4
:100C5800FF3CBCF1010F80D9DEF8042002F003024A
:100C6800032A0AD0C1685D000322AA4021EA0201D2
:100C7800DEF80820AA400A43C260DEF8042002F029
:100C88000302022A82D001684FEA430C032202FAC7
:100C98000CF221EA0201DEF8042002F0030202FA53
:100CA8000CF20A430260DEF8042012F4403FBDD083
:100CB80000220192264A516C41F480415164526CE1
:100CC80002F480420192019A99088D1C1E4A52F83A
:100CD800255003F0030C4FEA8C0C0F2202FA0CF299
:100CE80025EA02051B4A90423FF467AF02F580628D
:100CF80090421AD002F58062904218D002F58062C4
:100D0800904216D002F58062904214D002F58062BB
:100D1800904212D002F58062904210D002F58062B3
:100D280090423FF448AF082248E7012246E70222F2
:100D380044E7032242E7042240E705223EE7062271
:100D48003CE702B070BD00BF00380140003C0140E4
:100D580000380240000002400AB18161704709046E
:100D68008161704708B5054B5B69034200D108BD36
:100D7800024B5861FFF7B8FBF9E700BF003C0140A0
:100D8800002807DB00F01F02400901239340024AB4
:100D980042F82030704700BF00E100E0002808DB7F
:100DA8000901C9B200F1604000F5614080F8001304
:100DB800704700F00F000901C9B2014B1954704780
:100DC80014ED00E000B500F00700A0F1030CBCF141
:100DD800040F07D8C0F1070E0430062806D84FF0D4
:100DE800000C03E04FF0040E4FF0000C4FF0FF33FF
:100DF80003FA0EF021EA000101FA0CF103FA0CF3F0
:100E080022EA030241EA020000BD0000074AD36853
:100E180023F4E0631B041B0C000200F4E0600343AE
:100E280043F0BF6343F40033D360704700ED00E044
:100E380010B50446054BD868C0F30220FFF7C2FF7F
:100E480001462046FFF7AAFF10BD00BF00ED00E0F5
:100E580008B5FFF795FF08BD0138B0F1807F0BD2C8
:100E68004FF0E0235861054AF02182F82310002052
:100E7800986107221A6170470120704700ED00E071
:100E880010B504460E4B18680E4B1A784FF47A7357
:100E9800B3FBF2F3B0FBF3F0FFF7DEFF68B90F2CFA
:100EA80001D901200AE0024621464FF0FF30FFF742
:100EB800BFFF054B1C60002000E0012010BD00BFF3
:100EC80008000020000000200400002008B50B4B9B
:100ED8001A6842F400721A601A6842F480621A6052
:100EE8001A6842F480721A600320FFF78FFF0F2000
:100EF800FFF7C6FFFFF70EFB002008BD003C0240CD
:100F0800034A1168034B1B780B441360704700BFFA
:100F18003000002000000020014B1868704700BF17
:100F280030000020034AD2F8883043F47003C2F836
:100F38008830704700ED00E0DFF834D0FFF7F2FFAB
:100F48000C480D490D4A002302E0D458C45004331C
:100F5800C4188C42F9D30A4A0A4C002301E01360F2
:100F68000432A242FBD300F019F8FFF747FA7047A2
:100F780000000220000000200C000020441300089C
:100F88000C00002034000020FEE702440346934290
:100F980000D1704703F8011BF9E7000070B50D4B4D
:100FA8000D4C00261D1BB6EBA50F09D100F0AAF9C0
:100FB8000A4C0B4B00261D1BB6EBA50F05D170BDC7
:100FC80054F8043B98470136EDE754F8043B98473A
:100FD8000136F1E73C1300083C1300083C130008F5
:100FE800401300082DE9F04782B00646DDF828E0F6
:100FF8000846B4460D46002B4ED18A4214466DD998
:10100800B2FA82F242B1C2F12003954026FA03F304
:1010180094401D4306FA02FC260CA7B2B5FBF6F174
:101028004FEA1C4306FB115543EA054301FB07F051
:10103800984209D9E31801F1FF3580F003819842FD
:1010480040F20081023923441B1A1FFA8CFCB3FBBF
:10105800F6F006FB10334CEA034C00FB07F363453C
:101068000AD914EB0C0C00F1FF3580F0ED806345D4
:1010780040F2EA80A444023840EA0140ACEB030C99
:101088000021BEF1000F04D02CFA02F30022CEE9B1
:10109800003202B0BDE8F0878B4209D9BEF1000FDB
:1010A80001D0CEE900610021084602B0BDE8F08712
:1010B800B3FA83F1174600294DD1834202D3B242D5
:1010C80000F20F81B6EB070C60EB030301201D460D
:1010D800BEF1000FDDD0CEE900C5DAE7002A00F046
:1010E80098801A46B4FA84F3002B40F0AF800B1BAB
:1010F800270CA6B20121B3FBF7F54FEA1C4007FB0A
:10110800153340EA034306FB05F8984507D9E31869
:1011180005F1FF3002D2984500F2E8800546A3EBBE
:1011280008031FFA8CFCB3FBF7F007FB10334CEAFB
:10113800034C06FB00F3634508D914EB0C0C00F1D3
:10114800FF3602D2634500F2CE803046ACEB030C8A
:1011580040EA054095E7C1F120058B4022FA05FCDD
:101168004CEA030C00FA01F426FA05F3E84002FA07
:1011780001F943EA04084FEA1C4206FA01FAB0FBF7
:10118800F2F71FFA8CF602FB17004FEA184444EAFC
:10119800004407FB06F0A0420AD91CEB040407F13F
:1011A800FF3380F09C80A04240F29980023F644463
:1011B800241A1FFA88F3B4FBF2F002FB104443EA46
:1011C800044300FB06F69E4209D91CEB030300F119
:1011D800FF3480F082809E427FD90238634440EA1F
:1011E8000740A0FB09749B1BA3423E46A04664D35C
:1011F80061D0BEF1000F0AD0BAEB060263EB080318
:1012080003FA05F5CA401543CB40CEE90053002147
:101218003FE7730843EAC1734A08190C41EA0241DF
:101228004FEAC67C9BB2B2FBF4F02646A04627469E
:101238001F2243EA0143B1FBF4F1A3EB080341EA9F
:10124800004158E72946FFE6284615E71A46C3F144
:1012580020019C4026FA01F320FA01F19040034353
:10126800270C06FA02FCB1FBF7F0A6B207FB101533
:10127800190C41EA054100FB06F58D423BD961187E
:1012880001D28D4220D8491B0138B1FBF7F50195F1
:1012980005FB06F8019D9BB207FB151143EA0143C4
:1012A800434526D2E31805F1FF31C6D24345C4D2DF
:1012B800A91E2344C1E7BA459BD2B7EB090664EBE4
:1012C8000C040138A04694E7651B29440238B1FB99
:1012D800F7F5019505FB06F8DCE720467FE71F4692
:1012E80066E70846F4E6A44402382FE7023D2344A3
:1012F80015E70199A1E7491BB1FBF7F5019505FB36
:1013080006F8C7E7F8B500BFF8BC08BC9E467047AA
:0C131800F8B500BFF8BC08BC9E4670474A
:101324000000000000000000010203040607080991
:08133400B8FCFF7F010000007E
:04133C00250200087E
:04134000FD010008A3
:0C13440001000000100000000024F40074
:0400000508000F419F
:00000001FF
